:1009A7002D2D2D2D2D2D2D2D2D2D2D2D2D2D2D2D70
:1009B7002D2D2D2D2D2D2D2D2D2D2D2D2D2D2D2D60
:1009C7002D2D2D2D2D2D2D2D2D2D2D2D2D2D2D2D50
:1009D7002D2D2D2D2D2D2D2D2D2D2D2D2D2D2D2D40
:1009E7002D2D2D2D2D2D2D2D2D2D0D0A00202020C7
:1009F70020202020202020202020202020202020F0
:100A070020205265616C2054696D652057686561C7
:100A170074686572204D6F6E69746F72696E6720B6
:100A270053797374656D0D0A00202020202020560D
:100A37003139424534443400205245414C20544911
:100A47004D452057484541544845520020204D4FB9
:100A57004E49544F52494E472053595354454D0020
:100A67000D0A54656D70203A20002043000D0A4C92
:100A770069676874203A20002025000D0A506F74BA
:100A8700203A2000205600504D00414D000D0A0D20
:100A97000A004C4F472049442020202020202020B6
:100AA70054696D65202020202020202054656D701A
:100AB7006572617475726520202020204C69676813
:100AC7007420496E74656E73697479202020202024
:100AD70020506F742052656164696E670D0A0020AB
:100AE7002020002020202020200020504D002041E1
:100AF7004D00202020202020200020B0430020206F
:100B070020202020202020200020202020202020FE
:0C0B17002020202020200020560D0A0085
:09132C000131000133000132001F
:10050800E4F51412125A7F807E2512110B1212B5CF
:100518001213557BFF7A0979A71211AA7BFF7A0972
:1005280079F41211AA7BFF7A0979A71211AA7F80A0
:100538001212EA7BFF7A0A79301211F57FC0121283
:10054800EA7BFF7A0A793F1211F57F941212EAE5E5
:100558003CC4540FF539E53C540FFFE53975F00AF2
:10056800A42FF539F5367BFF7A0A79531211F51263
:10057800127A121078120CA88E2F8F307F01120F6A
:10058800278E378F38E4FF120F278E348F35AC2F24
:10059800AD30EC1203278F0B8E0A8D098C08AC370F
:1005A800AD38EC1203278F0F8E0E8D0D8C0CAC34EA
:1005B800AD35EC1203278F138E128D118C107F83AB
:1005C8001212EA121299120FAA7FC01212EA7BFFC6
:1005D8007A0A79671211F5E4FBFA79807843AF0B50
:1005E800AE0AAD09AC08120207120DFF7BFF7A0AAA
:1005F80079711211F57F941212EA7BFF7A0A7974E5
:100608001211F5E4FBFA79247842AF13AE12AD115A
:10061800AC10120207E4FBFA798078BF12000D12C1
:100628000DFF7BFF7A0A797F1211F57FD41212EA47
:100638007BFF7A0A79821211F5E4FFFE7DA07C40E7
:10064800AB0FAA0EA90DA80C1200FEE4FBFA7980E4
:100658007845120207120DFF7BFF7A0A798B121177
:10066800F5E5362401FFE433FEE5396F7001EE60ED
:10067800030207438539360533E533B40B06753372
:1006880001E4F514E4F531AB3BAD147FA01211D1B0
:1006980005147F0A7E0012123AAB3CAD147FA012FB
:1006A80011D105147F0A7E0012123AAB3DAD147FBA
:1006B800A01211D105147F0A7E0012123AAB30AD98
:1006C800147FA01211D105147F0A7E0012123AE598
:1006D8002FFF3395E0AB07AD147FA01211D105149D
:1006E8007F0A7E0012123AAB35AD147FA01211D1E9
:1006F80005147F0A7E0012123AE534FF3395E0AB09
:1007080007AD147FA01211D105147F0A7E001212C2
:100718003AAB38AD147FA01211D105147F0A7E00C0
:1007280012123AE537FF3395E0AB07AD147FA012FC
:1007380011D105147F0A7E0012123AE532B401067F
:1007480012075DE4F5327FE87E0312123A7F011248
:0507580012EA02057D1C
:100FAA00E53B549FF515C4540F2430FF121302E594
:100FBA0015540F2430FF1213027F3A121302E53C34
:100FCA00C4540FFFF539E53C540FFEE53975F00AB4
:100FDA00A42EF539EF2430FF121302E53C540F24F6
:100FEA0030FF1213027F3A121302E53DC4540F2454
:100FFA0030FF121302E53D540F2430FF1213027F13
:10100A0089121302E53B5420F53A7BFF60067A0AFF
:0B101A00798E80047A0A79911211F59A
:0110250022A8
:0300030002135C89
:04135C0075320132B3
:10075D00E4F5167BFF7A0A79941211AA7BFF7A0AC7
:10076D0079991211AA7BFF7A0979A71211AAE4F5DA
:10077D0015E515D3946440030209A6E5166533709B
:10078D00030209A67F0A7E0012123A7BFF7A0A79CC
:10079D00E61211AAE5162401FFE433FE120BEB7BE2
:1007AD00FF7A0A79EA1211AAAD157FA01211458FB1
:1007BD0017E517549FF518C4540F2430FF12133F3B
:1007CD00E518540F2430FF12133F7F3A12133F05E3
:1007DD00157F0A7E0012123AAD157FA01211458FBA
:1007ED0017E517C4540F2430FF12133FE517540FAC
:1007FD002430FF12133F7F3A12133F05157F0A7EF7
:10080D000012123AAD157FA01211458F17E517C4CE
:10081D00540F2430FF12133FE517540F2430FF12ED
:10082D00133F05157F0A7E0012123AE51754207BFF
:10083D00FF60067A0A79F180047A0A79F51211AA15
:10084D007BFF7A0A79F91211AAAD157FA012114515
:10085D008F1705157F0A7E0012123A75190085173C
:10086D001AE4F517AD157FA01211458F1705157FE9
:10087D000A7E0012123A751B0085171CE51CFEEE50
:10088D004219AC19AD1AEC1203278F208E1F8D1E45
:10089D008C1DE4FBFA79807843120207120D637BFD
:1008AD00FF7A0B79011211AA7BFF7A0B79051211D0
:1008BD00AAAD157FA01211458F1705157F0A7E0071
:1008CD0012123A75190085171AE4F517AD157FA0A8
:1008DD001211458F1705157F0A7E0012123A751BEE
:1008ED000085171CE51CFEEE4219AC19AD1AEC1271
:1008FD0003278F208E1F8D1E8C1DE4FBFA79247823
:10090D0042120207E4FBFA798078BF12000D120D36
:10091D00637BFF7A0A797F1211AA7BFF7A0B79101C
:10092D001211AAAD157FA01211458F1705157F0A5B
:10093D007E0012123A75190085171AE4F517AD15D8
:10094D007FA01211458F1705157F0A7E0012123AEE
:10095D00751B0085171CE51CFEEE4219AC19AD1A6E
:10096D00EC1203278F208E1F8D1E8C1DE4FFFE7D44
:10097D00A07C40AB20AA1FA91EA81D1200FEE4FBFF
:10098D00FA79807845120207120D637BFF7A0B7995
:09099D001E1211AA051602077EC4
:0109A600222E
:10127A00E4F515F515E4FBAD157FA01211D17F0A2F
:0E128A007E0012123A0515E515D394C840E710
:011298002233
:10110B00438920439850EF8EF01204DB112B1C20E7
:10111B0011302580113270801137E1000000113041
:10112B00758DFC8012800D758DFF800B758DFF43C7
:0A113B0087808003758DFDD28E229F
:08133F008F993099FDC299223B
:0611AA008B218A2289233B
:1011B000E4FFFEAB21AA22A9238F828E831203E1D2
:1011C000600EF5993099FDC2990FBF00010E80E3C2
:0111D00022FC
:040BEB00AD07AC06A0
:100BEF00E4FBFAF52DF52EED4C70057F3012133F17
:100BFF00C3EC6480948050107F2D12133FC3E49D8B
:100C0F00F52CE49CF52B80048C2B8D2CE4F52DF525
:100C1F002EE52C452B6037AE2BAF2C7C007D0A12B6
:100C2F0004428C838D827C007D0AAF03AE021204D6
:100C3F0030EF2582FBEE3583FA052EE52E70020587
:100C4F002DAE2BAF2C1204428E2B8F2C80C38A2BF0
:100C5F008B2CE52C452B602BAE2BAF2C7C007D0A0B
:100C6F00120442ED2430FF12133FE52E152E7002B1
:100C7F00152DAE2BAF2C7C007D0A1204428E2B8FCC
:100C8F002C80CFE52E452D600F7F3012133FE52EC0
:080C9F00152E70EF152D80EBFE
:010CA700222A
:080D63008F248E238D228C21C8
:100D6B001203608E258F26AC25AD26EC120327A827
:100D7B0004A905AA06AB07AF24AE23AD22AC211202
:100D8B0000098F2A8E298D288C27E4FBFA79C878E5
:100D9B00421200FE8F2A8E298D288C27E4FFFEFD40
:100DAB00FCAB2AAA29A928A8271202A45013AF2A00
:100DBB00AE29AD28AC271203118F2A8E298D288CD2
:100DCB0027AF26AE25120BEB7F2E12133FE4FFFE4F
:100DDB007D207C41AB2AAA29A928A8271202A4505E
:100DEB00057F3012133FAF2AAE29AD28AC27120373
:040DFB0060020BEB9C
:07134700D297D296C2962254
:09133600C297C296D297D296220A
:02117B00AD07BE
:10117D007C07C29774017E00A804088005C333CE96
:10118D0033CED8F9FFEDFBEF5B6003D38001C39243
:0C119D0096D2971CC3EC6480948050D65E
:0111A9002223
:10121800E4FF7E07D29730960D7401A80608800275
:10122800C333D8FC4207C2971EC3EE648094805033
:01123800E3D2
:011239002292
:10131A00C297D296D29700209604C297C322C29748
:02132A00D322CC
:07134E00C297D296D297224C
:1011D1008F188D198B1A121347AF1812117B121326
:1011E1001AAF1912117B12131AAF1A12117B1213B3
:0411F1001A02133695
:041145008F218D2247
:10114900E4F523121347AF2112117B12131AAF22B0
:1011590012117B12131A121347E5214401FF1211D0
:101169007B12131A1212188F2312134E121336AF51
:011179002352
:01117A002252
:100CA8007DEE7F901212D07F647E0012123A7D2270
:100CB8007F901212D07F0A7E0012123A751E0075BC
:100CC8001F007520157B027DAA7F901210267F0ACF
:100CD8007E0012123A7DA97F901211458F177F0A64
:100CE8007E0012123A7DA87F901211458F187F0A54
:100CF8007E0012123A75190085151AE51AF519E5DC
:100D080016F51AC3E5179518FDE49400FCE41203E0
:100D180027C004C005C006C007AC17E412032CA8FE
:100D280004A905AA06AB07D007D006D005D004123F
:100D38000207C004C005C006C007AC19AD1AE4120A
:100D48000327E4FBFA798078BE12000DD003D002A5
:0A0D5800D001D00012000D1203605C
:010D6200226E
:1012D0008F1B8D1C121347AF1B12117B12131AAFF9
:0A12E0001C12117B12131A021336C0
:0610C4008F188D198B1A34
:1010CA00121347AF1812117B12131AAF1912117BA0
:1010DA0012131AE4F51EE51EC3951A5021AB1BAA7A
:1010EA001CA91D851E827583001203E1FF12117B64
:1010FA007F0A7E0012123A12131A051E80D80213B2
:01110A0036AE
:061026008F1B8D1C8B1DC9
:10102C00121347AF1B12117B12131AAF1C12117B38
:10103C0012131A121336E4F521E521C3951D502B1A
:10104C00121347E51B4401FF12117B12131A1212E3
:10105C0018AB1EAA1FA920852182758300EF1204EC
:0B106C000E12134E121336052180CE29
:011077002256
:101078007B027DAC7F901211D17F0A7E0012123A5A
:10108800751528E4F516F51B751C00751D157B02F2
:101098007DA17F901210C47F0A7E0012123A751546
:1010A8000AE4F516F51B751C00751D157B027DA25B
:0C10B8007F901210C47F0A7E0002123AE2
:10123A00E4FDFCC3ED9FEC9E5015E4FBFA0BBB00EA
:0F124A00010AEB64704A70F50DBD00010C80E4E1
:011259002272
:100F2700900000EF7004FBFD8019BF01067B01E410
:100F3700FD8010BF0206E4FB7D018007BF03047B31
:100F4700017D01C293C290D291D290C290D291D228
:100F570090C290D291D290C290ED24FF9291D290FC
:100F6700C290EB24FF9291D290C290D291D290C2BC
:100F770090D291D2907C0BC29030921574017E0072
:100F8700A804088005C333CE33CED8F94282EE4297
:100F970083D2901CC3EC6480948050DBD293AE83E1
:020FA700AF8217
:010FA9002225
:1012EA008FA0C2B4C2B5D2B67F027E0012123AC231
:0812FA00B67F057E0002123AE6
:10125A007F147E0012123A7F381212EA7F0C1212A1
:10126A00EA7F061212EA7F011212EA7F800212EA6C
:101302008FA0D2B4C2B5D2B67F027E0012123AC208
:08131200B67F057E0002123ACD
:040B23008E1F8F2072
:100B2700E4F521F522F523F524E520451F70057F1F
:100B370030121302C3E51F6480948050127F2D1278
:100B47001302C3E49520F526E4951FF52580068555
:100B57001F25852026E4F521F522E5264525603762
:100B6700AE25AF267C007D0A120497AA04AB05AE1A
:100B770023AF247C007D0A120430EF2BF524EE3AD4
:100B8700F5230522E52270020521AE25AF261204C2
:100B9700978E258F2680C3852325852426E5264520
:100BA70025602BAE25AF267C007D0A120497ED2425
:100BB70030FF121302E522152270021521AE25AF70
:100BC700267C007D0A1204978E258F2680CFE5228A
:100BD7004521600FE5221522700215217F3012137F
:030BE7000280EB9E
:010BEA0022E8
:080DFF008F188E178D168C155C
:100E07001203608E198F1AAC19AD1AEC120327A8BA
:100E170004A905AA06AB07AF18AE17AD16AC151295
:100E270000098F1E8E1D8D1C8C1BE4FBFA79C87878
:100E3700421200FE8F1E8E1D8D1C8C1BE4FFFEFDD3
:100E4700FCAB1EAA1DA91CA81B1202A45013AF1E9F
:100E5700AE1DAD1CAC1B1203118F1E8E1D8D1C8C7D
:100E67001BAF1AAE19120B237F2E121302E4FFFEDB
:100E77007D207C41AB1EAA1DA91CA81B1202A450F1
:100E8700057F30121302AF1EAE1DAD1CAC1B120343
:040E970060020B23C7
:0611F5008B168A17891811
:1011FB00E4F519AB16AA17A9188519827583001285
:0C120B0003E1FF6007121302051980E7E1
:0112170022B4
:07135500D2AFD2A8D288221A
:1012B5007B717D027FD01211D17B597D017FD012C8
:0B12C50011D17B55E4FD7FD00211D158
:101299007D027FD01211458F3B7D017FD012114510
:0C12A9008F3CE4FD7FD01211458F3D22E8
:100006000203CCE86480F8E933E83360110460F059
:10001600ED33EC337009E8FCE9FDEAFEEBFF220460
:1000260060DED3EB9FEA9EE99DE8C2E78CF0C2F75B
:1000360095F0400CE8CCF8E9CDF9EACEFAEBCFFB27
:1000460012039785D0F05804700320D5B3E80470E6
:10005600075002B2D50203D692D5EC0460F7E4CC81
:10006600C0E0C398F8603B94186008400DD0E0FBF0
:100076000203AEE4FBFAC9FC8028E830E406E4C9D2
:10008600FBE4CAFCE830E305E4C9CACBFCE8540744
:100096006010F8C3E913F9EA13FAEB13FBEC13FC4F
:1000A600D8F130F52FC3E49CFCEF9BFFEE9AFEEDF2
:1000B60099FDD0E0FBEF4E4D4C701222DB0302039C
:1000C600D3EC2CFCEF33FFEE33FEED33FDED30E7E2
:1000D600EB0203AEEF2BFFEE3AFEED39FDD0E0FB6F
:1000E60050130BBB00030203D6ED13FDEE13FEEF18
:0800F60013FFEC13FC0203AE42
:1000FE00EC4D6011E8497017ED33EC3304600DE4FC
:10010E00FCFFFEFD22E933E8330470F80203CC1243
:10011E00039758046009E4CC248150062850090244
:10012E0003D62840030203D3C0E0EB4A7044B980E3
:10013E0006D0E0FB0203C2EF4E701CBD8008EBFF41
:10014E00EAFEE9FD80EBE98DF0A4FEE5F00201E7A1
:10015E00E9CDF9EAFEEBFFEF89F0A4FCE5F0CE89DC
:10016E00F0A42EFFE435F0CD89F0A42DFEE435F099
:10017E008067EF4E7005BD80D780C3EF8BF0A4ACC7
:10018E00F0EE8BF0A42CFCE435F0F8EF8AF0A42C02
:10019E00E5F038FCE433CB8DF0A42CFCE5F03BF815
:1001AE00EE8AF0A42CFCE5F038F8E433CF89F0A405
:1001BE002CFCE5F038CF3400CE89F0A42FFFE5F00B
:1001CE003EFEE433C98DF0A42EFEE5F039CD8AF063
:1001DE00A42FFFE5F03EFEE43DFD33D0E0FB5007DB
:1001EE000BBB000F0203D6EC2CFCEF33FFEE33FEFD
:0601FE00ED33FD0203AE2B
:100204000203D6EC5D046005E8590470030203CCD4
:10021400120397580460F6EC4860F2EC7004FDFE9B
:10022400FF22C860DB2481C85009C39860025006CD
:100234000203D39850CAF582E9294B4A7005AB8270
:100244000203C275F0007C1A7880C3EF9BEE9AED2E
:1002540099400DC3EF9BFFEE9AFEED99FDE842F045
:10026400DC23ACF0D0E0FFD0E0FED0E0FDAB822098
:10027400E7101BEB60BAEC2CFCEF33FFEE33FEED22
:1002840033FD0203AEE803F830E705C0F075F00073
:10029400EF2FFFEE33FEED33FD40B830E7C280AA06
:1002A40074F8CC6480CCC86480C8F582046043C30D
:1002B400EB9FF5F0EA9E42F0E99D42F0E89C45F0A0
:1002C40060305018E5825FFFE582F42B5582FB50C5
:1002D400210ABA001D09B90019088016E5825BFBE2
:1002E400E582F42F5582FF50090EBE00050DBD00B6
:1002F400010CC3EB9FF5F0EA9E42F0E99D42F0E861
:0D0304009C45F06007CC4820E701B3EC22D7
:10031100ED33EC33600A047003BD8004ECB2E7FCFA
:0103210022B9
:1003220075F020800E75F010800575F0087D007E56
:10033200007F003392D530D5031204CDEC33401048
:10034200EF33FFEE33FEED33FDEC33FCD5F0ED225F
:0E035200E5F0247EA2D513CC92E7CDCEFF229B
:10036000EDD2E7CD33EC3392D524814006E4FFFE95
:10037000FDFC22FCE4CFCECDCC24E0501174FF80F4
:10038000EDC3CC13CCCD13CDCE13CECF13CF047091
:07039000F030D5DE0204CDC0
:10039700E9D2E7C933E833F892D5EDD2E7CD33ECAC
:0703A70033FC5002B2D52225
:1003AE00EC30E7100FBF000C0EBE00080DBD0004B0
:1003BE000BEB6014A2D5EB13FCED92E7FD2274FF5C
:1003CE00FCFDFEFF22E480F8A2D574FF13FC7D80B5
:0303DE00E480EFC9
:03000000020E9B52
:0C0E9B00787FE4F6D8FD75813D020EE280
:1003E100BB010CE58229F582E5833AF583E02250D1
:1003F10006E92582F8E622BBFE06E92582F8E2221B
:0D040100E58229F582E5833AF583E4932234
:10040E00F8BB010DE58229F582E5833AF583E8F024
:10041E00225006E92582C8F622BBFE05E92582C8D0
:02042E00F222B8
:10043000EF8DF0A4A8F0CF8CF0A428CE8DF0A42EE0
:02044000FE229A
:10044200BC000BBE0029EF8DF084FFADF022E4CC9E
:10045200F875F008EF2FFFEE33FEEC33FCEE9DEC67
:10046200984005FCEE9DFE0FD5F0E9E4CEFD22EDAD
:10047200F8F5F0EE8420D21CFEADF075F008EF2FF7
:10048200FFED33FD4007985006D5F0F222C398FDE8
:050492000FD5F0EA2285
:10049700C2D5EC30E709B2D5E4C39DFDE49CFCEE80
:1004A70030E715B2D5E4C39FFFE49EFE120442C3B2
:1004B700E49DFDE49CFC800312044230D507C3E4AD
:0604C7009FFFE49EFE22EF
:0E04CD00C3E49FFFE49EFEE49DFDE49CFC2240
:1004DB00D083D082F8E4937012740193700DA3A3B0
:1004EB0093F8740193F5828883E473740293B5F0E7
:0D04FB00067403936860E9A3A3A3A380D84F
:100EA700020508E493A3F8E493A34003F68001F254
:100EB70008DFF48029E493A3F85407240CC8C3334C
:100EC700C4540F4420C8834004F456800146F6DF1B
:100ED700E4800B010204081020408090132CE47E6C
:100EE700019360BCA3FF543F30E509541FFEE49310
:100EF700A360010ECF54C025E060A840B8E493A3D7
:100F0700FAE493A3F8E493A3C8C582C8CAC583CA01
:100F1700F0A3C8C582C8CAC583CADFE9DEE780BEB9
:0113350000B7
:00000001FF
