:100E04000D0A54656D70203A202D200020B0430057
:100E14000D0A506F74203A202D20000D0A4C4452C4
:0F0E2400203A202D20000D0A00504D00414D00B6
:10050800120F127F807E25120D60120000120FC19B
:10051800120DD0120786AC06AD07EC1203278F2FF9
:100528008E2E8D2D8C2C7F01120AD7AC06AD07E4D8
:100538001203278F378E368D358C34E4FF120AD795
:10054800AC06AD07E41203278F338E328D318C3021
:100558007F80120F4C120000120B5A7FC0120F4CF2
:100568007BFF7A0E7904120EADE4FBFA79807843AA
:10057800AF2FAE2EAD2DAC2C120207120A3B7BFF1B
:100588007A0E7910120EAD7F94120F4C7BFF7A0E03
:100598007914120EADE4FFFE7DA07C40AB37AA367D
:1005A800A935A8341200FEE4FBFA798078451202D6
:1005B80007120A3B7FD4120F4C7BFF7A0E791F1269
:1005C8000EADE4FBFA79247842AF33AE32AD31ACEC
:1005D80030120207E4FBFA798078BF12000D120A84
:1005E8003B7BFF7A0E792A120E627FE87E03120E99
:0905F800F27F01120F4C02051BF9
:100B5A00E500D394124008E50024EEF51A800385D7
:100B6A00001AE5007003751A12E51AC4540F2430EE
:100B7A00FF120F64E51A540F2430FF120F647F3AF4
:100B8A00120F64E500C4540F2430FF120F64E5000D
:100B9A00540F2430FF120F647F3A120F64E500C429
:100BAA00540F2430FF120F64E500540F2430FF1253
:100BBA000F647F89120F64E5005420F5007BFF6003
:0E0BCA00067A0E792D80047A0E7930120EAD67
:010BD80022FA
:03000300020841AF
:10084100C0E0C0F0C083C082C0D075D000C000C07D
:1008510001C002C003C004C005C006C0077BFF7A07
:100861000E7904120E62E4FBFA79807843AF2FAE61
:100871002EAD2DAC2C1202071203601206C97BFFAC
:100881007A0E7910120E627BFF7A0E7914120E62C3
:10089100E4FFFE7DA07C40AB37AA36A935A834120F
:1008A10000FEE4FBFA7980784512020712099F7B6A
:1008B100FF7A0E791F120E62E4FBFA79247842AFB7
:1008C10033AE32AD31AC30120207E4FBFA798078F5
:1008D100BF12000D1203601206C9D007D006D00561
:1008E100D004D003D002D001D000D0D0D082D083A8
:0508F100D0F0D0E03260
:030FC8003078007E
:100D6000438920439850EF8EF01204DB0D801C2045
:100D70000D8525800D8770800D8CE10000000D85AC
:100D8000758DFC8012800D758DFF800B758DFF4376
:0A0D900087808003758DFDD28E224E
:080FA3008F993099FDC29922DB
:080FAB003098FDC298AF9922B5
:060E62008B1A8A1B891C9B
:100E6800E4FFFEAB1AAA1BA91C8F828E831203E132
:100E7800600EF5993099FDC2990FBF00010E80E30D
:010E88002247
:060D21008B508A5189523B
:100D2700E4FEEEC39D5021120FABAB50AA51A9525E
:100D37008E82758300EF12040E8E82758300120374
:100D4700E1640D60030E80DAAB50AA51A952AF06D9
:090D57008F82758300E402040E92
:0406C900AD07AC06C7
:1006CD00E4FBFAF514F515ED4C70057F30120FA310
:1006DD00C3EC6480948050107F2D120FA3C3E49D52
:1006ED00F513E49CF51280048C128D13E4F514F5CA
:1006FD0015E51345126037AE12AF137C007D0A125B
:10070D0004428C838D827C007D0AAF03AE021204FD
:10071D0030EF2582FBEE3583FA0515E515700205E0
:10072D0014AE12AF131204428E128F1380C38A12AD
:10073D008B13E5134512602BAE12AF137C007D0AAF
:10074D00120442ED2430FF120FA3E51515157002AA
:10075D001514AE12AF137C007D0A1204428E128F57
:10076D001380CFE5154514600F7F30120FA3E515EB
:08077D00151570EF151480EB57
:010785002251
:08099F008F0B8E0A8D098C08F4
:1009A7001203608E0C8F0DAC0CAD0DEC120327A853
:1009B70004A905AA06AB07AF0BAE0AAD09AC08122E
:1009C70000098F118E108D0F8C0EE4FBFA79C87811
:1009D700421200FE8F118E108D0F8C0EE4FFFEFD6C
:1009E700FCAB11AA10A90FA80E1202A45013AF1145
:1009F700AE10AD0FAC0E1203118F118E108D0F8C30
:100A07000EAF0DAE0C1206C97F2E120FA3E4FFFE28
:100A17007D207C41AB11AA10A90FA80E1202A45089
:100A2700057F30120FA3AF11AE10AD0FAC0E12033E
:040A3700600206C98A
:0408F6008E388F3970
:1008FA007BFF7A0F79C8120E62E4FBD3E5399400C4
:10090A00E53864809480406FAE38AF397C007D1042
:10091A00120497EC7045ED24F5601814601D1460FC
:10092A002214602714602C24057030743A2BF87650
:10093A00418032743A2BF87642802A743A2BF87640
:10094A00438022743A2BF87644801A743A2BF8764C
:10095A00458012743A2BF87646800AED2430FF74EB
:10096A003A2BF8A607AE38AF397C007D10120497EF
:10097A008E388F390B8084743A2BF8E4F6EB14FE28
:10098A00C3EE64809480400C743A2EF8E6FF120F8E
:04099A00A31E80EC2C
:01099E002236
:070FB300D295D294C29422F2
:090F9A00C295C294D295D29422B2
:020E3300AD0709
:100E35007C07C29574017E00A804088005C333CEE3
:100E450033CED8F9FFEDFBEF5B6003D38001C3928E
:0C0E550094D2951CC3EC6480948050D6AD
:010E6100226E
:100ED000E4FF7E07D29530940D7401A806088002C5
:100EE000C333D8FC4207C2951EC3EE648094805081
:010EF000E31E
:010EF10022DE
:100F7C00C295D294D29500209404C295C322C295F6
:020F8C00D3226E
:070FBA00C295D294D29522EA
:100E89008F1D8D1E8B1F120FB3AF1D120E33120F44
:100E99007CAF1E120E33120F7CAF1F120E33120FCE
:040EA9007C020F9A1E
:040D9A008F208D21F8
:100D9E00E4F522120FB3AF20120E33120F7CAF21E7
:100DAE00120E33120F7C120FB3E5204401FF120E08
:100DBE0033120F7C120ED08F22120FBA120F9AAF6F
:010DCE002202
:010DCF002201
:100786007DEE7F90120F327F647E00120EF27D2284
:100796007F90120F327F0A7E00120EF275230075CB
:1007A600240075251A7B027DAA7F90120C827F0A8F
:1007B6007E00120EF27DA97F90120D9A8F1C7F0A81
:1007C6007E00120EF27DA87F90120D9A8F1D7F0A71
:1007D6007E00120EF2751E00851A1FE51FF51EE536
:1007E6001BF51FC3E51C951DFDE49400FCE41203F4
:1007F60027C004C005C006C007AC1CE412032CA821
:1008060004A905AA06AB07D007D006D005D0041266
:100816000207C004C005C006C007AC1EAD1FE41227
:100826000327E4FBFA798078BE12000DD003D002CC
:0A083600D001D00012000D12036083
:010840002295
:100F32008F208D21120FB3AF20120E33120F7CAF10
:0A0F420021120E33120F7C020F9AE9
:0A0BD9008F448D458B468A478948FA
:100BE300E4F549120FB3AF44120E33120F7CAF4535
:100BF300120E33120F7CAB46AA47A948854982756A
:100C030083001203E1FF600A120E33120F7C0549C1
:100C130080E4AB46AA47A94885498275830012033D
:0B0C2300E1FF120E33120F7C020F9A4B
:0A0C2E008F4A8D4B8B4C8A4D894E86
:100C3800E4F54F120FB3AF4A120E33120F7CAF4BCD
:100C4800120E33120F7CE4F54F120FB3E54A44013C
:100C5800FF120E33120F7C120ED0AB4CAA4DA94EC8
:100C6800854F82758300EF12040E120FBA120F9A85
:090C7800054FE54FC3940240D082
:010C81002250
:070CD400FB7A00791A7F9002
:0A0CDB008F1D8D1E8B1F8A208921BA
:100CE500120FB3AF1D120E33120F7CAF1E120E334F
:100CF500120F7CE4F522AB1FAA20A921852282755B
:100D050083001203E1FF6011120E337F0A7E001289
:0C0D15000EF2120F7C052280DD020F9A06
:060C82008F208D218B2262
:100C8800120FB3AF20120E33120F7CAF21120E33A6
:100C9800120F7C120F9AE4F526E526C39522502BF5
:100CA800120FB3E5204401FF120E33120F7C120E0F
:100CB800D0AB23AA24A925852682758300EF1204C8
:0B0CC8000E120FBA120F9A052680CE04
:010CD30022FE
:100DD0007B027DAC7F90120E897F0A7E00120EF29C
:100DE000751A28E4F51B7DA1120CD47F0A7E00122F
:100DF0000EF2751A0AE4F51B7DA2120CD47F0A7E4E
:040E000000020EF2EC
:100EF200E4FDFCC3ED9FEC9E5015E4FBFA0BBB0036
:0F0F0200010AEB64704A70F50DBD00010C80E42C
:010F110022BD
:100AD700900000EF7004FBFD8019BF01067B01E465
:100AE700FD8010BF0206E4FB7D018007BF03047B86
:100AF700017D01C293C290D291D290C290D291D27D
:100B070090C290D291D290C290ED24FF9291D29050
:100B1700C290EB24FF9291D290C290D291D290C210
:100B270090D291D2907C0BC29030921574017E00C6
:100B3700A804088005C333CE33CED8F94282EE42EB
:100B470083D2901CC3EC6480948050DBD293AE8335
:020B5700AF826B
:010B59002279
:100F4C008FA0C2B4C2B5D2B67F027E00120EF2C21E
:080F5C00B67F057E00020EF2D3
:100F12007F147E00120EF27F38120F4C7F0C120FDC
:100F22004C7F06120F4C7F01120F4C7F80020F4C38
:100F64008FA0D2B4C2B5D2B67F027E00120EF2C2F6
:080F7400B67F057E00020EF2BB
:040601008E248F258F
:10060500E4F526F527F528F529E525452470057F28
:1006150030120F64C3E5246480948050127F2D123C
:100625000F64C3E49525F52BE49524F52A8006850A
:10063500242A85252BE4F526F527E52B452A603761
:10064500AE2AAF2B7C007D0A120497AA04AB05AE37
:1006550028AF297C007D0A120430EF2BF529EE3AEC
:10066500F5280527E52770020526AE2AAF2B1204CB
:10067500978E2A8F2B80C385282A85292BE52B4524
:100685002A602BAE2AAF2B7C007D0A120497ED243D
:1006950030FF120F64E527152770021526AE2AAF25
:1006A5002B7C007D0A1204978E2A8F2B80CFE5279D
:1006B5004526600FE5271527700215267F30120F96
:0306C5006480EB63
:0106C800220F
:080A3B008F1D8E1C8D1B8C1A0F
:100A43001203608E1E8F1FAC1EAD1FEC120327A86E
:100A530004A905AA06AB07AF1DAE1CAD1BAC1A1249
:100A630000098F238E228D218C20E4FBFA79C8782C
:100A7300421200FE8F238E228D218C20E4FFFEFD87
:100A8300FCAB23AA22A921A8201202A45013AF234E
:100A9300AE22AD21AC201203118F238E228D218C27
:100AA30020AF1FAE1E1206017F2E120F64E4FFFE5D
:100AB3007D207C41AB23AA22A921A8201202A450A5
:100AC300057F30120F64AF23AE22AD21AC20120399
:040AD30060020601B6
:060EAD008B1B8A1C891D4D
:100EB300E4F51EAB1BAA1CA91D851E8275830012B7
:0C0EC30003E1FF6007120F64051E80E7CA
:010ECF002200
:070FC100D2AFD2A8D28822B2
:100006000203CCE86480F8E933E83360110460F059
:10001600ED33EC337009E8FCE9FDEAFEEBFF220460
:1000260060DED3EB9FEA9EE99DE8C2E78CF0C2F75B
:1000360095F0400CE8CCF8E9CDF9EACEFAEBCFFB27
:1000460012039785D0F05804700320D5B3E80470E6
:10005600075002B2D50203D692D5EC0460F7E4CC81
:10006600C0E0C398F8603B94186008400DD0E0FBF0
:100076000203AEE4FBFAC9FC8028E830E406E4C9D2
:10008600FBE4CAFCE830E305E4C9CACBFCE8540744
:100096006010F8C3E913F9EA13FAEB13FBEC13FC4F
:1000A600D8F130F52FC3E49CFCEF9BFFEE9AFEEDF2
:1000B60099FDD0E0FBEF4E4D4C701222DB0302039C
:1000C600D3EC2CFCEF33FFEE33FEED33FDED30E7E2
:1000D600EB0203AEEF2BFFEE3AFEED39FDD0E0FB6F
:1000E60050130BBB00030203D6ED13FDEE13FEEF18
:0800F60013FFEC13FC0203AE42
:1000FE00EC4D6011E8497017ED33EC3304600DE4FC
:10010E00FCFFFEFD22E933E8330470F80203CC1243
:10011E00039758046009E4CC248150062850090244
:10012E0003D62840030203D3C0E0EB4A7044B980E3
:10013E0006D0E0FB0203C2EF4E701CBD8008EBFF41
:10014E00EAFEE9FD80EBE98DF0A4FEE5F00201E7A1
:10015E00E9CDF9EAFEEBFFEF89F0A4FCE5F0CE89DC
:10016E00F0A42EFFE435F0CD89F0A42DFEE435F099
:10017E008067EF4E7005BD80D780C3EF8BF0A4ACC7
:10018E00F0EE8BF0A42CFCE435F0F8EF8AF0A42C02
:10019E00E5F038FCE433CB8DF0A42CFCE5F03BF815
:1001AE00EE8AF0A42CFCE5F038F8E433CF89F0A405
:1001BE002CFCE5F038CF3400CE89F0A42FFFE5F00B
:1001CE003EFEE433C98DF0A42EFEE5F039CD8AF063
:1001DE00A42FFFE5F03EFEE43DFD33D0E0FB5007DB
:1001EE000BBB000F0203D6EC2CFCEF33FFEE33FEFD
:0601FE00ED33FD0203AE2B
:100204000203D6EC5D046005E8590470030203CCD4
:10021400120397580460F6EC4860F2EC7004FDFE9B
:10022400FF22C860DB2481C85009C39860025006CD
:100234000203D39850CAF582E9294B4A7005AB8270
:100244000203C275F0007C1A7880C3EF9BEE9AED2E
:1002540099400DC3EF9BFFEE9AFEED99FDE842F045
:10026400DC23ACF0D0E0FFD0E0FED0E0FDAB822098
:10027400E7101BEB60BAEC2CFCEF33FFEE33FEED22
:1002840033FD0203AEE803F830E705C0F075F00073
:10029400EF2FFFEE33FEED33FD40B830E7C280AA06
:1002A40074F8CC6480CCC86480C8F582046043C30D
:1002B400EB9FF5F0EA9E42F0E99D42F0E89C45F0A0
:1002C40060305018E5825FFFE582F42B5582FB50C5
:1002D400210ABA001D09B90019088016E5825BFBE2
:1002E400E582F42F5582FF50090EBE00050DBD00B6
:1002F400010CC3EB9FF5F0EA9E42F0E99D42F0E861
:0D0304009C45F06007CC4820E701B3EC22D7
:10031100ED33EC33600A047003BD8004ECB2E7FCFA
:0103210022B9
:1003220075F020800E75F010800575F0087D007E56
:10033200007F003392D530D5031204CDEC33401048
:10034200EF33FFEE33FEED33FDEC33FCD5F0ED225F
:0E035200E5F0247EA2D513CC92E7CDCEFF229B
:10036000EDD2E7CD33EC3392D524814006E4FFFE95
:10037000FDFC22FCE4CFCECDCC24E0501174FF80F4
:10038000EDC3CC13CCCD13CDCE13CECF13CF047091
:07039000F030D5DE0204CDC0
:10039700E9D2E7C933E833F892D5EDD2E7CD33ECAC
:0703A70033FC5002B2D52225
:1003AE00EC30E7100FBF000C0EBE00080DBD0004B0
:1003BE000BEB6014A2D5EB13FCED92E7FD2274FF5C
:1003CE00FCFDFEFF22E480F8A2D574FF13FC7D80B5
:0303DE00E480EFC9
:03000000020F8E5E
:0C0F8E00787FE4F6D8FD7581520205085A
:1003E100BB010CE58229F582E5833AF583E02250D1
:1003F10006E92582F8E622BBFE06E92582F8E2221B
:0D040100E58229F582E5833AF583E4932234
:10040E00F8BB010DE58229F582E5833AF583E8F024
:10041E00225006E92582C8F622BBFE05E92582C8D0
:02042E00F222B8
:10043000EF8DF0A4A8F0CF8CF0A428CE8DF0A42EE0
:02044000FE229A
:10044200BC000BBE0029EF8DF084FFADF022E4CC9E
:10045200F875F008EF2FFFEE33FEEC33FCEE9DEC67
:10046200984005FCEE9DFE0FD5F0E9E4CEFD22EDAD
:10047200F8F5F0EE8420D21CFEADF075F008EF2FF7
:10048200FFED33FD4007985006D5F0F222C398FDE8
:050492000FD5F0EA2285
:10049700C2D5EC30E709B2D5E4C39DFDE49CFCEE80
:1004A70030E715B2D5E4C39FFFE49EFE120442C3B2
:1004B700E49DFDE49CFC800312044230D507C3E4AD
:0604C7009FFFE49EFE22EF
:0E04CD00C3E49FFFE49EFEE49DFDE49CFC2240
:1004DB00D083D082F8E4937012740193700DA3A3B0
:1004EB0093F8740193F5828883E473740293B5F0E7
:0D04FB00067403936860E9A3A3A3A380D84F
:00000001FF
