:1009B0002D2D2D2D2D2D2D2D2D2D2D2D2D2D2D2D67
:1009C0002D2D2D2D2D2D2D2D2D2D2D2D2D2D2D2D57
:1009D0002D2D2D2D2D2D2D2D2D2D2D2D2D2D2D2D47
:1009E0002D2D2D2D2D2D2D2D2D2D2D2D2D2D2D2D37
:1009F0002D2D2D2D2D2D2D2D2D2D0D0A00202020BE
:100A000020202020202020202020202020202020E6
:100A100020205265616C2054696D652057686561BE
:100A200074686572204D6F6E69746F72696E6720AD
:100A300053797374656D0D0A002020202020205604
:100A40003139424534443400205245414C20544908
:100A50004D452057484541544845520020204D4FB0
:100A60004E49544F52494E472053595354454D0017
:100A70000D0A54656D70203A20002043000D0A4C89
:100A800069676874203A20002025000D0A506F74B1
:100A9000203A2000205600504D00414D000D0A0D17
:100AA0000A004C4F472049442020202020202020AD
:100AB00054696D65202020202020202054656D7011
:100AC0006572617475726520202020204C6967680A
:100AD0007420496E74656E7369747920202020201B
:100AE00020506F742052656164696E670D0A0020A2
:100AF0002020002020202020200020504D002041D8
:100B00004D00202020202020200020B04300202065
:100B100020202020202020200020202020202020F5
:0C0B20002020202020200020560D0A007C
:0913350001310001330001320016
:10050800E4F5141212637F807E251211141212BEB4
:1005180012135E7BFF7A0979B01211B37BFF7A0957
:1005280079FD1211B37BFF7A0979B01211B37F807C
:100538001212F37BFF7A0A79391211FE7FC0121268
:10054800F37BFF7A0A79481211FE7F941212F3E5C1
:100558003CC4540FF539E53C540FFFE53975F00AF2
:10056800A42FF539F5367BFF7A0A795C1211FE7FE4
:10057800B87E0B121243121081120CB18E2F8F30DD
:100588007F01120F308E378F38E4FF120F308E3410
:100598008F35AC2FAD30EC1203278F0B8E0A8D09E7
:1005A8008C08AC37AD38EC1203278F0F8E0E8D0DEB
:1005B8008C0CAC34AD35EC1203278F138E128D11D1
:1005C8008C107F011212F37F831212F31212A212FF
:1005D8000FB37FC01212F37BFF7A0A79701211FEF3
:1005E800E4FBFA79807843AF0BAE0AAD09AC081288
:1005F8000207120E087BFF7A0A797A1211FE7F949D
:100608001212F37BFF7A0A797D1211FEE4FBFA7964
:10061800247842AF13AE12AD11AC10120207E4FBFE
:10062800FA798078BF12000D120E087BFF7A0A79DA
:10063800881211FE7FD41212F37BFF7A0A798B128B
:1006480011FEE4FFFE7DA07C40AB0FAA0EA90DA809
:100658000C1200FEE4FBFA79807845120207120EAC
:10066800087BFF7A0A79941211FEE5362401FFE42B
:1006780033FEE5396F7001EE600302074C853936A9
:100688000533E533B40B06753301E4F514E4F531AD
:10069800AB3BAD147FA01211DA05147F0A7E00125D
:1006A8001243AB3CAD147FA01211DA05147F0A7E09
:1006B80000121243AB3DAD147FA01211DA05147F6E
:1006C8000A7E00121243AB30AD147FA01211DA0576
:1006D800147F0A7E00121243E52FFF3395E0AB0723
:1006E800AD147FA01211DA05147F0A7E001212439E
:1006F800AB35AD147FA01211DA05147F0A7E001203
:100708001243E534FF3395E0AB07AD147FA0121117
:10071800DA05147F0A7E00121243AB38AD147FA0AD
:100728001211DA05147F0A7E00121243E537FF33EF
:1007380095E0AB07AD147FA01211DA05147F0A7E8D
:1007480000121243E532B40106120766E4F5327F5F
:0E075800E87E031212437F011212F3020581A4
:100FB300E53B549FF515C4540F2430FF12130BE582
:100FC30015540F2430FF12130B7F3A12130BE53C19
:100FD300C4540FFFF539E53C540FFEE53975F00AAB
:100FE300A42EF539EF2430FF12130BE53C540F24E4
:100FF30030FF12130B7F3A12130BE53DC4540F2439
:1010030030FF12130BE53D540F2430FF12130B7FF7
:101013008912130BE53B5420F53A7BFF60067A0AED
:0B102300799780047A0A799A1211FE76
:01102E00229F
:0300030002136580
:0413650075320132AA
:10076600E4F5167BFF7A0A799D1211B37BFF7A0AAC
:1007760079A21211B37BFF7A0979B01211B3E4F5AD
:1007860015E515D3946440030209AFE51665337089
:10079600030209AF7F0A7E001212437BFF7A0A79B1
:1007A600EF1211B3E5162401FFE433FE120BF47BBE
:1007B600FF7A0A79F31211B3AD157FA012114E8F8D
:1007C60017E517549FF518C4540F2430FF12134829
:1007D600E518540F2430FF1213487F3A12134805C8
:1007E600157F0A7E00121243AD157FA012114E8F9F
:1007F60017E517C4540F2430FF121348E517540F9A
:100806002430FF1213487F3A12134805157F0A7EDB
:1008160000121243AD157FA012114E8F17E517C4B3
:10082600540F2430FF121348E517540F2430FF12DB
:10083600134805157F0A7E00121243E51754207BE4
:10084600FF60067A0A79FA80047A0A79FE1211B3F1
:100856007BFF7A0B79021211B3AD157FA012114EF0
:100866008F1705157F0A7E0012124375190085172A
:100876001AE4F517AD157FA012114E8F1705157FD7
:100886000A7E00121243751B0085171CE51CFEEE3E
:100896004219AC19AD1AEC1203278F208E1F8D1E3C
:1008A6008C1DE4FBFA79807843120207120D6C7BEB
:1008B600FF7A0B790A1211B37BFF7A0B790E1211AC
:1008C600B3AD157FA012114E8F1705157F0A7E0056
:1008D60012124375190085171AE4F517AD157FA096
:1008E60012114E8F1705157F0A7E00121243751BD3
:1008F6000085171CE51CFEEE4219AC19AD1AEC1268
:1009060003278F208E1F8D1E8C1DE4FBFA79247819
:1009160042120207E4FBFA798078BF12000D120D2D
:100926006C7BFF7A0A79881211B37BFF7A0B7919EF
:100936001211B3AD157FA012114E8F1705157F0A40
:100946007E0012124375190085171AE4F517AD15C6
:100956007FA012114E8F1705157F0A7E00121243D3
:10096600751B0085171CE51CFEEE4219AC19AD1A65
:10097600EC1203278F208E1F8D1E8C1DE4FFFE7D3B
:10098600A07C40AB20AA1FA91EA81D1200FEE4FBF6
:10099600FA79807845120207120D6C7BFF7A0B7983
:0909A600271211B30516020787A0
:0109AF002225
:10128300E4F53EF53EE4FBAD3E7FA01211DA7F0AA2
:0E1293007E00121243053EE53ED394C840E7AC
:0112A100222A
:10111400438920439850EF8EF01204DB11341C20D5
:1011240011392580113B70801140E1000000113914
:10113400758DFC8012800D758DFF800B758DFF43BE
:0A11440087808003758DFDD28E2296
:081348008F993099FDC2992232
:0611B3008B218A22892332
:1011B900E4FFFEAB21AA22A9238F828E831203E1C9
:1011C900600EF5993099FDC2990FBF00010E80E3B9
:0111D90022F3
:040BF400AD07AC0697
:100BF800E4FBFAF52DF52EED4C70057F3012134805
:100C0800C3EC6480948050107F2D121348C3E49D78
:100C1800F52CE49CF52B80048C2B8D2CE4F52DF51C
:100C28002EE52C452B6037AE2BAF2C7C007D0A12AD
:100C380004428C838D827C007D0AAF03AE021204CD
:100C480030EF2582FBEE3583FA052EE52E7002057E
:100C58002DAE2BAF2C1204428E2B8F2C80C38A2BE7
:100C68008B2CE52C452B602BAE2BAF2C7C007D0A02
:100C7800120442ED2430FF121348E52E152E70029F
:100C8800152DAE2BAF2C7C007D0A1204428E2B8FC3
:100C98002C80CFE52E452D600F7F30121348E52EAE
:080CA800152E70EF152D80EBF5
:010CB0002221
:080D6C008F248E238D228C21BF
:100D74001203608E258F26AC25AD26EC120327A81E
:100D840004A905AA06AB07AF24AE23AD22AC2112F9
:100D940000098F2A8E298D288C27E4FBFA79C878DC
:100DA400421200FE8F2A8E298D288C27E4FFFEFD37
:100DB400FCAB2AAA29A928A8271202A45013AF2AF7
:100DC400AE29AD28AC271203118F2A8E298D288CC9
:100DD40027AF26AE25120BF47F2E121348E4FFFE34
:100DE4007D207C41AB2AAA29A928A8271202A45055
:100DF400057F30121348AF2AAE29AD28AC27120361
:040E040060020BF489
:07135000D297D296C296224B
:09133F00C297C296D297D2962201
:02118400AD07B5
:101186007C07C29774017E00A804088005C333CE8D
:1011960033CED8F9FFEDFBEF5B6003D38001C3923A
:0C11A60096D2971CC3EC6480948050D655
:0111B200221A
:10122100E4FF7E07D29730960D7401A8060880026C
:10123100C333D8FC4207C2971EC3EE64809480502A
:01124100E3C9
:011242002289
:10132300C297D296D29700209604C297C322C2973F
:02133300D322C3
:07135700C297D296D2972243
:1011DA008F188D198B1A121350AF1812118412130B
:1011EA0023AF19121184121323AF1A121184121386
:0411FA002302133F7A
:04114E008F218D223E
:10115200E4F523121350AF21121184121323AF228C
:10116200121184121323121350E5214401FF1211AC
:10117200841213231212218F2312135712133FAF1B
:011182002349
:011183002249
:100CB1007DEE7F901212D97F647E001212437D2255
:100CC1007F901212D97F0A7E00121243751E0075A1
:100CD1001F007520157B027DAA7F9012102F7F0ABD
:100CE1007E001212437DA97F9012114E8F177F0A49
:100CF1007E001212437DA87F9012114E8F187F0A39
:100D01007E0012124375190085151AE51AF519E5C9
:100D110016F51AC3E5179518FDE49400FCE41203D7
:100D210027C004C005C006C007AC17E412032CA8F5
:100D310004A905AA06AB07D007D006D005D0041236
:100D41000207C004C005C006C007AC19AD1AE41201
:100D51000327E4FBFA798078BE12000DD003D0029C
:0A0D6100D001D00012000D12036053
:010D6B002265
:1012D9008F1B8D1C121350AF1B121184121323AFD5
:0A12E9001C12118412132302133F9C
:0610CD008F188D198B1A2B
:1010D300121350AF18121184121323AF1912118473
:1010E300121323E4F51EE51EC3951A5021AB1BAA68
:1010F3001CA91D851E827583001203E1FF12118452
:101103007F0A7E00121243121323051E80D8021396
:011113003F9C
:06102F008F1B8D1C8B1DC0
:10103500121350AF1B121184121323AF1C1211840B
:1010450012132312133FE4F521E521C3951D502BFF
:10105500121350E51B4401FF1211841213231212BF
:1010650021AB1EAA1FA920852182758300EF1204DA
:0B1075000E12135712133F052180CE0E
:01108000224D
:101081007B027DAC7F901211DA7F0A7E001212433F
:10109100751528E4F516F51B751C00751D157B02E9
:1010A1007DA17F901210CD7F0A7E0012124375152B
:1010B1000AE4F516F51B751C00751D157B027DA252
:0C10C1007F901210CD7F0A7E00021243C7
:10124300E4FDFCC3ED9FEC9E5015E4FBFA0BBB00E1
:0F125300010AEB64704A70F50DBD00010C80E4D8
:011262002269
:100F3000900000EF7004FBFD8019BF01067B01E407
:100F4000FD8010BF0206E4FB7D018007BF03047B28
:100F5000017D01C293C290D291D290C290D291D21F
:100F600090C290D291D290C290ED24FF9291D290F3
:100F7000C290EB24FF9291D290C290D291D290C2B3
:100F800090D291D2907C0BC29030921574017E0069
:100F9000A804088005C333CE33CED8F94282EE428E
:100FA00083D2901CC3EC6480948050DBD293AE83D8
:020FB000AF820E
:010FB200221C
:1012F3008FA0C2B4C2B5D2B67F027E00121243C21F
:08130300B67F057E00021243D3
:101263007F147E001212437F381212F37F0C121286
:10127300F37F061212F37F011212F37F800212F33F
:10130B008FA0D2B4C2B5D2B67F027E00121243C2F6
:08131B00B67F057E00021243BB
:040B2C008E1F8F2069
:100B3000E4F521F522F523F524E520451F70057F16
:100B40003012130BC3E51F6480948050127F2D1266
:100B5000130BC3E49520F526E4951FF52580068543
:100B60001F25852026E4F521F522E5264525603759
:100B7000AE25AF267C007D0A120497AA04AB05AE11
:100B800023AF247C007D0A120430EF2BF524EE3ACB
:100B9000F5230522E52270020521AE25AF261204B9
:100BA000978E258F2680C3852325852426E5264517
:100BB00025602BAE25AF267C007D0A120497ED241C
:100BC00030FF12130BE522152270021521AE25AF5E
:100BD000267C007D0A1204978E258F2680CFE52281
:100BE0004521600FE5221522700215217F30121376
:030BF0000B80EB8C
:010BF30022DF
:080E08008F188E178D168C1552
:100E10001203608E198F1AAC19AD1AEC120327A8B1
:100E200004A905AA06AB07AF18AE17AD16AC15128C
:100E300000098F1E8E1D8D1C8C1BE4FBFA79C8786F
:100E4000421200FE8F1E8E1D8D1C8C1BE4FFFEFDCA
:100E5000FCAB1EAA1DA91CA81B1202A45013AF1E96
:100E6000AE1DAD1CAC1B1203118F1E8E1D8D1C8C74
:100E70001BAF1AAE19120B2C7F2E12130BE4FFFEC0
:100E80007D207C41AB1EAA1DA91CA81B1202A450E8
:100E9000057F3012130BAF1EAE1DAD1CAC1B120331
:040EA00060020B2CB5
:0611FE008B168A17891808
:10120400E4F519AB16AA17A918851982758300127B
:0C12140003E1FF600712130B051980E7CF
:0112200022AB
:07135E00D2AFD2A8D2882211
:1012BE007B717D027FD01211DA7B597D017FD012B6
:0B12CE0011DA7B55E4FD7FD00211DA3D
:1012A2007D027FD012114E8F3B7D017FD012114EF5
:0C12B2008F3CE4FD7FD012114E8F3D22D6
:100006000203CCE86480F8E933E83360110460F059
:10001600ED33EC337009E8FCE9FDEAFEEBFF220460
:1000260060DED3EB9FEA9EE99DE8C2E78CF0C2F75B
:1000360095F0400CE8CCF8E9CDF9EACEFAEBCFFB27
:1000460012039785D0F05804700320D5B3E80470E6
:10005600075002B2D50203D692D5EC0460F7E4CC81
:10006600C0E0C398F8603B94186008400DD0E0FBF0
:100076000203AEE4FBFAC9FC8028E830E406E4C9D2
:10008600FBE4CAFCE830E305E4C9CACBFCE8540744
:100096006010F8C3E913F9EA13FAEB13FBEC13FC4F
:1000A600D8F130F52FC3E49CFCEF9BFFEE9AFEEDF2
:1000B60099FDD0E0FBEF4E4D4C701222DB0302039C
:1000C600D3EC2CFCEF33FFEE33FEED33FDED30E7E2
:1000D600EB0203AEEF2BFFEE3AFEED39FDD0E0FB6F
:1000E60050130BBB00030203D6ED13FDEE13FEEF18
:0800F60013FFEC13FC0203AE42
:1000FE00EC4D6011E8497017ED33EC3304600DE4FC
:10010E00FCFFFEFD22E933E8330470F80203CC1243
:10011E00039758046009E4CC248150062850090244
:10012E0003D62840030203D3C0E0EB4A7044B980E3
:10013E0006D0E0FB0203C2EF4E701CBD8008EBFF41
:10014E00EAFEE9FD80EBE98DF0A4FEE5F00201E7A1
:10015E00E9CDF9EAFEEBFFEF89F0A4FCE5F0CE89DC
:10016E00F0A42EFFE435F0CD89F0A42DFEE435F099
:10017E008067EF4E7005BD80D780C3EF8BF0A4ACC7
:10018E00F0EE8BF0A42CFCE435F0F8EF8AF0A42C02
:10019E00E5F038FCE433CB8DF0A42CFCE5F03BF815
:1001AE00EE8AF0A42CFCE5F038F8E433CF89F0A405
:1001BE002CFCE5F038CF3400CE89F0A42FFFE5F00B
:1001CE003EFEE433C98DF0A42EFEE5F039CD8AF063
:1001DE00A42FFFE5F03EFEE43DFD33D0E0FB5007DB
:1001EE000BBB000F0203D6EC2CFCEF33FFEE33FEFD
:0601FE00ED33FD0203AE2B
:100204000203D6EC5D046005E8590470030203CCD4
:10021400120397580460F6EC4860F2EC7004FDFE9B
:10022400FF22C860DB2481C85009C39860025006CD
:100234000203D39850CAF582E9294B4A7005AB8270
:100244000203C275F0007C1A7880C3EF9BEE9AED2E
:1002540099400DC3EF9BFFEE9AFEED99FDE842F045
:10026400DC23ACF0D0E0FFD0E0FED0E0FDAB822098
:10027400E7101BEB60BAEC2CFCEF33FFEE33FEED22
:1002840033FD0203AEE803F830E705C0F075F00073
:10029400EF2FFFEE33FEED33FD40B830E7C280AA06
:1002A40074F8CC6480CCC86480C8F582046043C30D
:1002B400EB9FF5F0EA9E42F0E99D42F0E89C45F0A0
:1002C40060305018E5825FFFE582F42B5582FB50C5
:1002D400210ABA001D09B90019088016E5825BFBE2
:1002E400E582F42F5582FF50090EBE00050DBD00B6
:1002F400010CC3EB9FF5F0EA9E42F0E99D42F0E861
:0D0304009C45F06007CC4820E701B3EC22D7
:10031100ED33EC33600A047003BD8004ECB2E7FCFA
:0103210022B9
:1003220075F020800E75F010800575F0087D007E56
:10033200007F003392D530D5031204CDEC33401048
:10034200EF33FFEE33FEED33FDEC33FCD5F0ED225F
:0E035200E5F0247EA2D513CC92E7CDCEFF229B
:10036000EDD2E7CD33EC3392D524814006E4FFFE95
:10037000FDFC22FCE4CFCECDCC24E0501174FF80F4
:10038000EDC3CC13CCCD13CDCE13CECF13CF047091
:07039000F030D5DE0204CDC0
:10039700E9D2E7C933E833F892D5EDD2E7CD33ECAC
:0703A70033FC5002B2D52225
:1003AE00EC30E7100FBF000C0EBE00080DBD0004B0
:1003BE000BEB6014A2D5EB13FCED92E7FD2274FF5C
:1003CE00FCFDFEFF22E480F8A2D574FF13FC7D80B5
:0303DE00E480EFC9
:03000000020EA449
:0C0EA400787FE4F6D8FD75813E020EEB6D
:1003E100BB010CE58229F582E5833AF583E02250D1
:1003F10006E92582F8E622BBFE06E92582F8E2221B
:0D040100E58229F582E5833AF583E4932234
:10040E00F8BB010DE58229F582E5833AF583E8F024
:10041E00225006E92582C8F622BBFE05E92582C8D0
:02042E00F222B8
:10043000EF8DF0A4A8F0CF8CF0A428CE8DF0A42EE0
:02044000FE229A
:10044200BC000BBE0029EF8DF084FFADF022E4CC9E
:10045200F875F008EF2FFFEE33FEEC33FCEE9DEC67
:10046200984005FCEE9DFE0FD5F0E9E4CEFD22EDAD
:10047200F8F5F0EE8420D21CFEADF075F008EF2FF7
:10048200FFED33FD4007985006D5F0F222C398FDE8
:050492000FD5F0EA2285
:10049700C2D5EC30E709B2D5E4C39DFDE49CFCEE80
:1004A70030E715B2D5E4C39FFFE49EFE120442C3B2
:1004B700E49DFDE49CFC800312044230D507C3E4AD
:0604C7009FFFE49EFE22EF
:0E04CD00C3E49FFFE49EFEE49DFDE49CFC2240
:1004DB00D083D082F8E4937012740193700DA3A3B0
:1004EB0093F8740193F5828883E473740293B5F0E7
:0D04FB00067403936860E9A3A3A3A380D84F
:100EB000020508E493A3F8E493A34003F68001F24B
:100EC00008DFF48029E493A3F85407240CC8C33343
:100ED000C4540F4420C8834004F456800146F6DF12
:100EE000E4800B0102040810204080901335E47E5A
:100EF000019360BCA3FF543F30E509541FFEE49307
:100F0000A360010ECF54C025E060A840B8E493A3CD
:100F1000FAE493A3F8E493A3C8C582C8CAC583CAF8
:100F2000F0A3C8C582C8CAC583CADFE9DEE780BEB0
:01133E0000AE
:00000001FF
